{
  "contractName": "Houses",
  "abi": [
    {
      "constant": true,
      "inputs": [
        {
          "name": "",
          "type": "uint256"
        }
      ],
      "name": "houses",
      "outputs": [
        {
          "name": "direccion",
          "type": "string"
        },
        {
          "name": "propietario",
          "type": "string"
        },
        {
          "name": "wallet",
          "type": "address"
        }
      ],
      "payable": false,
      "stateMutability": "view",
      "type": "function"
    },
    {
      "constant": true,
      "inputs": [
        {
          "name": "",
          "type": "uint256"
        }
      ],
      "name": "houseToOwner",
      "outputs": [
        {
          "name": "",
          "type": "address"
        }
      ],
      "payable": false,
      "stateMutability": "view",
      "type": "function"
    },
    {
      "inputs": [],
      "payable": false,
      "stateMutability": "nonpayable",
      "type": "constructor"
    },
    {
      "constant": false,
      "inputs": [
        {
          "name": "_direccion",
          "type": "string"
        },
        {
          "name": "_propietario",
          "type": "string"
        },
        {
          "name": "_wallet",
          "type": "address"
        }
      ],
      "name": "createHouse",
      "outputs": [],
      "payable": false,
      "stateMutability": "nonpayable",
      "type": "function"
    },
    {
      "constant": true,
      "inputs": [],
      "name": "getAll",
      "outputs": [
        {
          "components": [
            {
              "name": "direccion",
              "type": "string"
            },
            {
              "name": "propietario",
              "type": "string"
            },
            {
              "name": "wallet",
              "type": "address"
            }
          ],
          "name": "",
          "type": "tuple[]"
        }
      ],
      "payable": false,
      "stateMutability": "view",
      "type": "function"
    }
  ],
  "bytecode": "0x60806040526010600055600054600a0a60015534801561001e57600080fd5b50610b508061002e6000396000f3fe608060405234801561001057600080fd5b506004361061004c5760003560e01c80633605c6c11461005157806353ed51431461006d578063aeda852f1461008b578063cf9ce6fc146100bd575b600080fd5b61006b60048036036100669190810190610703565b6100ed565b005b61007561022d565b6040516100829190610936565b60405180910390f35b6100a560048036036100a09190810190610782565b610426565b6040516100b493929190610958565b60405180910390f35b6100d760048036036100d29190810190610782565b6105ad565b6040516100e4919061091b565b60405180910390f35b60006001600260405180606001604052808781526020018681526020018573ffffffffffffffffffffffffffffffffffffffff1681525090806001815401808255809150509060018203906000526020600020906003020160009091929091909150600082015181600001908051906020019061016b9291906105e0565b5060208201518160010190805190602001906101889291906105e0565b5060408201518160020160006101000a81548173ffffffffffffffffffffffffffffffffffffffff021916908373ffffffffffffffffffffffffffffffffffffffff1602179055505050039050816003600083815260200190815260200160002060006101000a81548173ffffffffffffffffffffffffffffffffffffffff021916908373ffffffffffffffffffffffffffffffffffffffff16021790555050505050565b60606002805480602002602001604051908101604052809291908181526020016000905b8282101561041d5783829060005260206000209060030201604051806060016040529081600082018054600181600116156101000203166002900480601f01602080910402602001604051908101604052809291908181526020018280546001816001161561010002031660029004801561030d5780601f106102e25761010080835404028352916020019161030d565b820191906000526020600020905b8154815290600101906020018083116102f057829003601f168201915b50505050508152602001600182018054600181600116156101000203166002900480601f0160208091040260200160405190810160405280929190818152602001828054600181600116156101000203166002900480156103af5780601f10610384576101008083540402835291602001916103af565b820191906000526020600020905b81548152906001019060200180831161039257829003601f168201915b505050505081526020016002820160009054906101000a900473ffffffffffffffffffffffffffffffffffffffff1673ffffffffffffffffffffffffffffffffffffffff1673ffffffffffffffffffffffffffffffffffffffff168152505081526020019060010190610251565b50505050905090565b6002818154811061043357fe5b9060005260206000209060030201600091509050806000018054600181600116156101000203166002900480601f0160208091040260200160405190810160405280929190818152602001828054600181600116156101000203166002900480156104df5780601f106104b4576101008083540402835291602001916104df565b820191906000526020600020905b8154815290600101906020018083116104c257829003601f168201915b505050505090806001018054600181600116156101000203166002900480601f01602080910402602001604051908101604052809291908181526020018280546001816001161561010002031660029004801561057d5780601f106105525761010080835404028352916020019161057d565b820191906000526020600020905b81548152906001019060200180831161056057829003601f168201915b5050505050908060020160009054906101000a900473ffffffffffffffffffffffffffffffffffffffff16905083565b60036020528060005260406000206000915054906101000a900473ffffffffffffffffffffffffffffffffffffffff1681565b828054600181600116156101000203166002900490600052602060002090601f016020900481019282601f1061062157805160ff191683800117855561064f565b8280016001018555821561064f579182015b8281111561064e578251825591602001919060010190610633565b5b50905061065c9190610660565b5090565b61068291905b8082111561067e576000816000905550600101610666565b5090565b90565b60008135905061069481610ae8565b92915050565b600082601f8301126106ab57600080fd5b81356106be6106b9826109ca565b61099d565b915080825260208301602083018583830111156106da57600080fd5b6106e5838284610a95565b50505092915050565b6000813590506106fd81610aff565b92915050565b60008060006060848603121561071857600080fd5b600084013567ffffffffffffffff81111561073257600080fd5b61073e8682870161069a565b935050602084013567ffffffffffffffff81111561075b57600080fd5b6107678682870161069a565b925050604061077886828701610685565b9150509250925092565b60006020828403121561079457600080fd5b60006107a2848285016106ee565b91505092915050565b60006107b783836108c4565b905092915050565b6107c881610a59565b82525050565b6107d781610a59565b82525050565b60006107e882610a03565b6107f28185610a26565b935083602082028501610804856109f6565b8060005b85811015610840578484038952815161082185826107ab565b945061082c83610a19565b925060208a01995050600181019050610808565b50829750879550505050505092915050565b600061085d82610a0e565b6108678185610a37565b9350610877818560208601610aa4565b61088081610ad7565b840191505092915050565b600061089682610a0e565b6108a08185610a48565b93506108b0818560208601610aa4565b6108b981610ad7565b840191505092915050565b600060608301600083015184820360008601526108e18282610852565b915050602083015184820360208601526108fb8282610852565b915050604083015161091060408601826107bf565b508091505092915050565b600060208201905061093060008301846107ce565b92915050565b6000602082019050818103600083015261095081846107dd565b905092915050565b60006060820190508181036000830152610972818661088b565b90508181036020830152610986818561088b565b905061099560408301846107ce565b949350505050565b6000604051905081810181811067ffffffffffffffff821117156109c057600080fd5b8060405250919050565b600067ffffffffffffffff8211156109e157600080fd5b601f19601f8301169050602081019050919050565b6000602082019050919050565b600081519050919050565b600081519050919050565b6000602082019050919050565b600082825260208201905092915050565b600082825260208201905092915050565b600082825260208201905092915050565b6000610a6482610a6b565b9050919050565b600073ffffffffffffffffffffffffffffffffffffffff82169050919050565b6000819050919050565b82818337600083830152505050565b60005b83811015610ac2578082015181840152602081019050610aa7565b83811115610ad1576000848401525b50505050565b6000601f19601f8301169050919050565b610af181610a59565b8114610afc57600080fd5b50565b610b0881610a8b565b8114610b1357600080fd5b5056fea265627a7a7230582019d328b37f268bec3fdfeab21d255b3588fa8f7bbad8c72a9edecb76595718976c6578706572696d656e74616cf50037",
  "source": "pragma solidity >=0.5.0 <0.6.0;\npragma experimental ABIEncoderV2;\n\n\ncontract Houses {\n    constructor() public {}\n    uint dnaDigits = 16;\n    uint dnaModulus = 10 ** dnaDigits;\n\n    struct House {\n        string direccion;\n        string propietario;\n        address wallet;\n    }\n\n    // struct House {\n    //     string propietario;\n    //     address walletPropietario;\n    //     string curp;\n    //     string fecha;\n    //     string escritura;\n    //     string notaria;\n    //     address walletNotario;\n    //     string solicitud;\n    //     string ubicacion;\n    //     string calle;\n    //     string exterior;\n    //     string interior;\n    //     string colonia;\n    //     string estado;\n    //     string municipio;\n    //     string cp;\n    // }\n\n    House[] public houses;\n    mapping (uint => address) public houseToOwner;\n\n    function createHouse(string memory _direccion, string memory _propietario, address _wallet) public {\n        uint id = houses.push(House(_direccion, _propietario, _wallet)) - 1;\n        houseToOwner[id] = _wallet;\n    }\n    // function createHouse(\n    //     string memory _propietario,\n    //     address _walletPropietario,\n    //     string memory _curp,\n    //     string memory _fecha,\n    //     string memory _escritura,\n    //     string memory _notaria,\n    //     address _walletNotario,\n    //     string memory _solicitud,\n    //     string memory _ubicacion,\n    //     string memory _calle,\n    //     string memory _exterior,\n    //     string memory _interior,\n    //     string memory _colonia,\n    //     string memory _estado,\n    //     string memory _municipio,\n    //     string memory _cp\n    // ) public {\n    //     uint id = houses.push(House(\n    //     _propietario,\n    //     _walletPropietario,\n    //     _curp,\n    //     _fecha,\n    //     _escritura,\n    //     _notaria,\n    //     _walletNotario,\n    //     _solicitud,\n    //     _ubicacion,\n    //     _calle,\n    //     _exterior,\n    //     _interior,\n    //     _colonia,\n    //     _estado,\n    //     _municipio,\n    //     _cp)) - 1;\n    //     houseToOwner[id] = _walletPropietario;\n    // }\n    // function _generateRandomDna(string memory _str) private view returns (uint) {\n    //     uint rand = uint(keccak256(abi.encodePacked(_str)));\n    //     return rand % dnaModulus;\n    // }\n    function getAll() public view returns(House[] memory) {\n        return houses;\n    }\n}",
  "sourcePath": "/Users/IvanJobi/Proyectos/TT20-007/src/contracts/Houses.sol",
  "compiler": {
    "name": "solc",
    "version": "0.5.8+commit.23d335f2.Emscripten.clang"
  },
  "schemaVersion": "3.0.14",
  "updatedAt": "2020-06-08T05:12:44.977Z",
  "devdoc": {
    "methods": {}
  },
  "userdoc": {
    "methods": {}
  }
}